:04000000803116280D
:100008007E14803120007F08F0000B1F11282E007D
:10001800961A8C1E112881314B2170082000FF0090
:100028007E10090080311828FC017E1020008031E4
:10003800CE28200097013E00E50120009601980196
:100048003E00B901C401CF01FF30B8007F30C300C2
:10005800FF30CE00FF3020009200F7309300F030E0
:10006800910000308B1B0130F1008B1355303D009F
:100078008F00AA308F000F101E08E0390F389E003D
:100088000E303E00A3000E3093000E3091000E306B
:1000980092000E30900055303D008F00AA308F003E
:1000A8000F14711C59288B1708008B130800343063
:1000B80080318320803134308031AA2080313B3038
:1000C8008031AA2080312C308031AA208031343010
:1000D8008031AA20803158308031832080315830D7
:1000E8008031AA20803169308031AA2080315E3089
:1000F8008031AA20803158308031AA200800F800C9
:100108007D30F1000030F2008031E4208031780841
:10011800250099000330F7000830F6007830F50024
:10012800F50B9428F60B9428F70B94280030F1006F
:10013800F2008031E42080310D30F600FB30F5000C
:10014800F50BA428F60BA42800320800F7007D3030
:10015800F1000030F2008031E4208031770825007A
:1001680099008230F600DD30F500F50BB928F60B62
:10017800B92800320030F100F2008031E4208031EB
:100188000D30F600FB30F500F50BC828F60BC82833
:100198000032080081310E2180318B170B17803116
:1001A8005B2080310630FB001330FA00B130F900D3
:1001B800F90BDC28FA0BDC28FB0BDC280032D328EF
:1001C8007208F4007108F300F436F30CF436F30CFB
:1001D800730827008D0071080339F3000530F335E3
:1001E800FF3E031DF32873358C00080020009E0194
:1001F80046309F0066309D009C012E008C1296169A
:100208005E30F1000130F2008131522180318131BC
:100218005B21080080311D208131813142218131EB
:1002280081312C21813181311D2181318031FA20A8
:100238000800503025009A0001309C009B019D0168
:100248003E30990098012E00901281315821080003
:10025800803027008E001F308D0040308C000C301D
:1002680024009F0408002000200821040319080026
:1002780021088A0020080A00813108006030310016
:100288008D008F01910102309300920108002E0029
:100298008C1281313721FC01FC0A08007208200009
:1002A800A1007108A000080025009A170800200086
:0602B8009E17080008007B
:020000040001F9
:0A000E00EC3FFF3B9F3FFF3FFF3F29
:00000001FF
