:04000000803116280D
:100008007E14803120007F08F0000B1F11282E007D
:10001800961A8C1E11288131A42170082000FF0037
:100028007E10090080311828FC017E1020008131E3
:1000380027292E308031BE2080312E308031E620B5
:1000480080312E308031E62080313B308031BE2037
:1000580080312E308031E620803127308031E62013
:10006800803181310D2180314F308031BE20803187
:100078003B308031BE2080314F308031BE2080310E
:100088005E308031E620803146308031E620803194
:100098003E308031BE20803142308031BE208031F8
:1000A80046308031E62080314F308031BE208031AB
:1000B8002E308031E620803127308031BE208031DB
:1000C80023308031E62080312C308031BE208031D1
:1000D80027308031E62080312E308031E620803193
:1000E8003B308031BE20803134308031BE208031B9
:1000F8003E308031BE200800200097013E00E50117
:100108002000960198013E00B901C401CF01FF30DB
:10011800B8007F30C300FF30CE00FF3020009200CF
:10012800F7309300F030910000308B1B0130F10064
:100138008B1355303D008F00AA308F000F101E081A
:10014800E0390F389E000E303E00A3000E309300B9
:100158000E3091000E3092000E30900055303D0068
:100168008F00AA308F000F14711CBC288B17080051
:100178008B130800F8007D30F1000030F200813167
:100188003D2180317808250099000230F7000430BD
:10019800F600BA30F500F50BCF28F60BCF28F70B91
:1001A800CF2800000030F100F20081313D2180317C
:1001B8000D30F600FB30F500F50BE028F60BE028D3
:1001C80000320800F8007D30F1000030F200813183
:1001D8003D2180317808250099000330F700083068
:1001E800F6007830F500F50BF728F60BF728F70B33
:1001F800F7280030F100F20081313D2180310D30C7
:10020800F600FB30F500F50B0729F60B072900323D
:1002180008000030F100F20081313D2181310230C7
:10022800F7000430F600BA30F500F50B1929F60B83
:100238001929F70B192900007D30F1000030F20070
:1002480081313D2108008131672181318B170B17DE
:1002580080311D2081310630FB001330FA00B130A7
:10026800F900F90B3529FA0B3529FB0B3529003232
:100278002C297208F4007108F300F436F30CF436F4
:10028800F30C730827008D0071080339F30005305B
:10029800F335FF3E031D4C2973358C000800200000
:1002A8009E0146309F0066309D009C012E008C12F6
:1002B8009616B730F1000130F2008131AB2181315F
:1002C8008131B421080080318020813181319B2126
:1002D80081318131852181318131762181318131AD
:1002E80053210800503025009A0001309C009B01E2
:1002F8009D013E30990098012E0090128131B12164
:100308000800803027008E001F308D0040308C00A0
:100318000C3024009F040800200020082104031941
:10032800080021088A0020080A008131080060308E
:1003380031008D008F019101023093009201080075
:100348002E008C1281319021FC01FC0A08007208F1
:100358002000A1007108A000080025009A170800D5
:0803680020009E1708000800A8
:020000040001F9
:0A000E00EC3FFF3B9F3FFF3FFF3F29
:00000001FF
